{
  "contractName": "PharmaChain",
  "abi": [
    {
      "inputs": [],
      "stateMutability": "nonpayable",
      "type": "constructor"
    },
    {
      "inputs": [],
      "name": "AccessControlBadConfirmation",
      "type": "error"
    },
    {
      "inputs": [
        {
          "internalType": "address",
          "name": "account",
          "type": "address"
        },
        {
          "internalType": "bytes32",
          "name": "neededRole",
          "type": "bytes32"
        }
      ],
      "name": "AccessControlUnauthorizedAccount",
      "type": "error"
    },
    {
      "anonymous": false,
      "inputs": [
        {
          "indexed": false,
          "internalType": "uint256",
          "name": "batchNumber",
          "type": "uint256"
        },
        {
          "indexed": false,
          "internalType": "string",
          "name": "suppliers",
          "type": "string"
        }
      ],
      "name": "MedicineApproved",
      "type": "event"
    },
    {
      "anonymous": false,
      "inputs": [
        {
          "indexed": false,
          "internalType": "uint256",
          "name": "batchNumber",
          "type": "uint256"
        },
        {
          "indexed": false,
          "internalType": "string",
          "name": "name",
          "type": "string"
        },
        {
          "indexed": false,
          "internalType": "string",
          "name": "suppliers",
          "type": "string"
        },
        {
          "indexed": false,
          "internalType": "uint256",
          "name": "expiryDate",
          "type": "uint256"
        }
      ],
      "name": "MedicineRegistered",
      "type": "event"
    },
    {
      "anonymous": false,
      "inputs": [
        {
          "indexed": false,
          "internalType": "uint256",
          "name": "batchNumber",
          "type": "uint256"
        },
        {
          "indexed": false,
          "internalType": "string",
          "name": "sender",
          "type": "string"
        },
        {
          "indexed": false,
          "internalType": "string",
          "name": "receiver",
          "type": "string"
        }
      ],
      "name": "MedicineTransferred",
      "type": "event"
    },
    {
      "anonymous": false,
      "inputs": [
        {
          "indexed": false,
          "internalType": "uint256",
          "name": "batchNumber",
          "type": "uint256"
        },
        {
          "indexed": false,
          "internalType": "string",
          "name": "notes",
          "type": "string"
        }
      ],
      "name": "QualityChecked",
      "type": "event"
    },
    {
      "anonymous": false,
      "inputs": [
        {
          "indexed": true,
          "internalType": "bytes32",
          "name": "role",
          "type": "bytes32"
        },
        {
          "indexed": true,
          "internalType": "bytes32",
          "name": "previousAdminRole",
          "type": "bytes32"
        },
        {
          "indexed": true,
          "internalType": "bytes32",
          "name": "newAdminRole",
          "type": "bytes32"
        }
      ],
      "name": "RoleAdminChanged",
      "type": "event"
    },
    {
      "anonymous": false,
      "inputs": [
        {
          "indexed": true,
          "internalType": "bytes32",
          "name": "role",
          "type": "bytes32"
        },
        {
          "indexed": true,
          "internalType": "address",
          "name": "account",
          "type": "address"
        },
        {
          "indexed": true,
          "internalType": "address",
          "name": "sender",
          "type": "address"
        }
      ],
      "name": "RoleGranted",
      "type": "event"
    },
    {
      "anonymous": false,
      "inputs": [
        {
          "indexed": true,
          "internalType": "bytes32",
          "name": "role",
          "type": "bytes32"
        },
        {
          "indexed": true,
          "internalType": "address",
          "name": "account",
          "type": "address"
        },
        {
          "indexed": true,
          "internalType": "address",
          "name": "sender",
          "type": "address"
        }
      ],
      "name": "RoleRevoked",
      "type": "event"
    },
    {
      "inputs": [],
      "name": "ADMIN_ROLE",
      "outputs": [
        {
          "internalType": "bytes32",
          "name": "",
          "type": "bytes32"
        }
      ],
      "stateMutability": "view",
      "type": "function",
      "constant": true
    },
    {
      "inputs": [],
      "name": "DEFAULT_ADMIN_ROLE",
      "outputs": [
        {
          "internalType": "bytes32",
          "name": "",
          "type": "bytes32"
        }
      ],
      "stateMutability": "view",
      "type": "function",
      "constant": true
    },
    {
      "inputs": [],
      "name": "MANUFACTURER_ROLE",
      "outputs": [
        {
          "internalType": "bytes32",
          "name": "",
          "type": "bytes32"
        }
      ],
      "stateMutability": "view",
      "type": "function",
      "constant": true
    },
    {
      "inputs": [],
      "name": "RETAILER_ROLE",
      "outputs": [
        {
          "internalType": "bytes32",
          "name": "",
          "type": "bytes32"
        }
      ],
      "stateMutability": "view",
      "type": "function",
      "constant": true
    },
    {
      "inputs": [
        {
          "internalType": "bytes32",
          "name": "role",
          "type": "bytes32"
        }
      ],
      "name": "getRoleAdmin",
      "outputs": [
        {
          "internalType": "bytes32",
          "name": "",
          "type": "bytes32"
        }
      ],
      "stateMutability": "view",
      "type": "function",
      "constant": true
    },
    {
      "inputs": [
        {
          "internalType": "bytes32",
          "name": "role",
          "type": "bytes32"
        },
        {
          "internalType": "address",
          "name": "account",
          "type": "address"
        }
      ],
      "name": "grantRole",
      "outputs": [],
      "stateMutability": "nonpayable",
      "type": "function"
    },
    {
      "inputs": [
        {
          "internalType": "bytes32",
          "name": "role",
          "type": "bytes32"
        },
        {
          "internalType": "address",
          "name": "account",
          "type": "address"
        }
      ],
      "name": "hasRole",
      "outputs": [
        {
          "internalType": "bool",
          "name": "",
          "type": "bool"
        }
      ],
      "stateMutability": "view",
      "type": "function",
      "constant": true
    },
    {
      "inputs": [
        {
          "internalType": "uint256",
          "name": "",
          "type": "uint256"
        }
      ],
      "name": "medicineBatchNumbers",
      "outputs": [
        {
          "internalType": "uint256",
          "name": "",
          "type": "uint256"
        }
      ],
      "stateMutability": "view",
      "type": "function",
      "constant": true
    },
    {
      "inputs": [
        {
          "internalType": "uint256",
          "name": "",
          "type": "uint256"
        }
      ],
      "name": "medicines",
      "outputs": [
        {
          "internalType": "string",
          "name": "name",
          "type": "string"
        },
        {
          "internalType": "string",
          "name": "suppliers",
          "type": "string"
        },
        {
          "internalType": "uint256",
          "name": "batchNumber",
          "type": "uint256"
        },
        {
          "internalType": "uint256",
          "name": "expiryDate",
          "type": "uint256"
        },
        {
          "internalType": "bool",
          "name": "isApproved",
          "type": "bool"
        },
        {
          "internalType": "string",
          "name": "qualityControlNotes",
          "type": "string"
        }
      ],
      "stateMutability": "view",
      "type": "function",
      "constant": true
    },
    {
      "inputs": [
        {
          "internalType": "bytes32",
          "name": "role",
          "type": "bytes32"
        },
        {
          "internalType": "address",
          "name": "callerConfirmation",
          "type": "address"
        }
      ],
      "name": "renounceRole",
      "outputs": [],
      "stateMutability": "nonpayable",
      "type": "function"
    },
    {
      "inputs": [
        {
          "internalType": "bytes32",
          "name": "role",
          "type": "bytes32"
        },
        {
          "internalType": "address",
          "name": "account",
          "type": "address"
        }
      ],
      "name": "revokeRole",
      "outputs": [],
      "stateMutability": "nonpayable",
      "type": "function"
    },
    {
      "inputs": [
        {
          "internalType": "bytes4",
          "name": "interfaceId",
          "type": "bytes4"
        }
      ],
      "name": "supportsInterface",
      "outputs": [
        {
          "internalType": "bool",
          "name": "",
          "type": "bool"
        }
      ],
      "stateMutability": "view",
      "type": "function",
      "constant": true
    },
    {
      "inputs": [
        {
          "internalType": "uint256",
          "name": "",
          "type": "uint256"
        }
      ],
      "name": "transactions",
      "outputs": [
        {
          "internalType": "uint256",
          "name": "batchNumber",
          "type": "uint256"
        },
        {
          "internalType": "string",
          "name": "sender",
          "type": "string"
        },
        {
          "internalType": "string",
          "name": "receiver",
          "type": "string"
        },
        {
          "internalType": "uint256",
          "name": "timestamp",
          "type": "uint256"
        }
      ],
      "stateMutability": "view",
      "type": "function",
      "constant": true
    },
    {
      "inputs": [
        {
          "internalType": "uint256",
          "name": "_batchNumber",
          "type": "uint256"
        },
        {
          "internalType": "string",
          "name": "_name",
          "type": "string"
        },
        {
          "internalType": "string",
          "name": "_suppliers",
          "type": "string"
        },
        {
          "internalType": "uint256",
          "name": "_expiryDate",
          "type": "uint256"
        }
      ],
      "name": "registerMedicine",
      "outputs": [],
      "stateMutability": "nonpayable",
      "type": "function"
    },
    {
      "inputs": [
        {
          "internalType": "uint256",
          "name": "_batchNumber",
          "type": "uint256"
        }
      ],
      "name": "approveMedicine",
      "outputs": [],
      "stateMutability": "nonpayable",
      "type": "function"
    },
    {
      "inputs": [
        {
          "internalType": "uint256",
          "name": "_batchNumber",
          "type": "uint256"
        },
        {
          "internalType": "string",
          "name": "_notes",
          "type": "string"
        }
      ],
      "name": "qualityCheck",
      "outputs": [],
      "stateMutability": "nonpayable",
      "type": "function"
    },
    {
      "inputs": [
        {
          "internalType": "uint256",
          "name": "_batchNumber",
          "type": "uint256"
        },
        {
          "internalType": "string",
          "name": "_sender",
          "type": "string"
        },
        {
          "internalType": "string",
          "name": "_receiver",
          "type": "string"
        }
      ],
      "name": "transferMedicine",
      "outputs": [],
      "stateMutability": "nonpayable",
      "type": "function"
    },
    {
      "inputs": [],
      "name": "getTransactionHistory",
      "outputs": [
        {
          "components": [
            {
              "internalType": "uint256",
              "name": "batchNumber",
              "type": "uint256"
            },
            {
              "internalType": "string",
              "name": "sender",
              "type": "string"
            },
            {
              "internalType": "string",
              "name": "receiver",
              "type": "string"
            },
            {
              "internalType": "uint256",
              "name": "timestamp",
              "type": "uint256"
            }
          ],
          "internalType": "struct PharmaChain.Transaction[]",
          "name": "",
          "type": "tuple[]"
        }
      ],
      "stateMutability": "view",
      "type": "function",
      "constant": true
    },
    {
      "inputs": [
        {
          "internalType": "uint256",
          "name": "_batchNumber",
          "type": "uint256"
        }
      ],
      "name": "verifyMedicine",
      "outputs": [
        {
          "internalType": "string",
          "name": "",
          "type": "string"
        },
        {
          "internalType": "string",
          "name": "",
          "type": "string"
        },
        {
          "internalType": "uint256",
          "name": "",
          "type": "uint256"
        },
        {
          "internalType": "uint256",
          "name": "",
          "type": "uint256"
        },
        {
          "internalType": "bool",
          "name": "",
          "type": "bool"
        },
        {
          "internalType": "string",
          "name": "",
          "type": "string"
        }
      ],
      "stateMutability": "view",
      "type": "function",
      "constant": true
    },
    {
      "inputs": [],
      "name": "getAllMedicines",
      "outputs": [
        {
          "components": [
            {
              "internalType": "string",
              "name": "name",
              "type": "string"
            },
            {
              "internalType": "string",
              "name": "suppliers",
              "type": "string"
            },
            {
              "internalType": "uint256",
              "name": "batchNumber",
              "type": "uint256"
            },
            {
              "internalType": "uint256",
              "name": "expiryDate",
              "type": "uint256"
            },
            {
              "internalType": "bool",
              "name": "isApproved",
              "type": "bool"
            },
            {
              "internalType": "string",
              "name": "qualityControlNotes",
              "type": "string"
            }
          ],
          "internalType": "struct PharmaChain.Medicine[]",
          "name": "",
          "type": "tuple[]"
        }
      ],
      "stateMutability": "view",
      "type": "function",
      "constant": true
    },
    {
      "inputs": [
        {
          "internalType": "address",
          "name": "_address",
          "type": "address"
        }
      ],
      "name": "isAdmin",
      "outputs": [
        {
          "internalType": "bool",
          "name": "",
          "type": "bool"
        }
      ],
      "stateMutability": "view",
      "type": "function",
      "constant": true
    }
  ],
  "bytecode": "0x60806040523480156200001157600080fd5b506200004d7fa49807205ce4d355092ef5a8a18f56e8913cf4a201fbe287825b095693c2177533620001e4640100000000026401000000009004565b506200009d7feefb95e842a3287179d933b4460be539a1d5af11aa8b325bb45c5c8dc92de4ed731de0140241992a9424266cb359a45a64332795ec620001e4640100000000026401000000009004565b50620000ed7fa49807205ce4d355092ef5a8a18f56e8913cf4a201fbe287825b095693c21775731a2e1001a68b36eca01258863fe3e489893c4707620001e4640100000000026401000000009004565b506200013d7f2a5f906c256a5d799494fcd066e1f6c077689de1cdb65052a1624de4bace99bf733c4e3aeb19ea73802ce2896ffd5ffcd264992c97620001e4640100000000026401000000009004565b506200018d7feefb95e842a3287179d933b4460be539a1d5af11aa8b325bb45c5c8dc92de4ed731a2e1001a68b36eca01258863fe3e489893c4707620001e4640100000000026401000000009004565b50620001dd7f2a5f906c256a5d799494fcd066e1f6c077689de1cdb65052a1624de4bace99bf731a2e1001a68b36eca01258863fe3e489893c4707620001e4640100000000026401000000009004565b506200036b565b6000620002018383620002f9640100000000026401000000009004565b620002ee57600160008085815260200190815260200160002060000160008473ffffffffffffffffffffffffffffffffffffffff1673ffffffffffffffffffffffffffffffffffffffff16815260200190815260200160002060006101000a81548160ff0219169083151502179055506200028a62000363640100000000026401000000009004565b73ffffffffffffffffffffffffffffffffffffffff168273ffffffffffffffffffffffffffffffffffffffff16847f2f8788117e7eff1d82e926ec794901d17c78024a50270940304540a733656f0d60405160405180910390a460019050620002f3565b600090505b92915050565b600080600084815260200190815260200160002060000160008373ffffffffffffffffffffffffffffffffffffffff1673ffffffffffffffffffffffffffffffffffffffff16815260200190815260200160002060009054906101000a900460ff16905092915050565b600033905090565b612b17806200037b6000396000f3fe608060405234801561001057600080fd5b5060043610610154576000357c01000000000000000000000000000000000000000000000000000000009004806379f434f3116100d5578063a217fddf11610099578063a217fddf14610385578063b76d4fc3146103a3578063c85e766d146103c1578063d547741f146103f6578063e5c6113314610412578063ea6dac051461042e57610154565b806379f434f3146102cc5780637fd6a66b146102e857806391d1485414610304578063965288b0146103345780639ace38c21461035257610154565b80632f2ff15d1161011c5780632f2ff15d1461023c57806336568abe146102585780633b1672e71461027457806368f2b1d21461029057806375b238fc146102ae57610154565b806301ffc9a7146101595780630bb638f0146101895780632115e7bf146101be578063248a9ca3146101dc57806324d7806c1461020c575b600080fd5b610173600480360381019061016e9190611ab9565b61045e565b6040516101809190611b01565b60405180910390f35b6101a3600480360381019061019e9190611b52565b6104d8565b6040516101b596959493929190611c1e565b60405180910390f35b6101c6610776565b6040516101d39190611cad565b60405180910390f35b6101f660048036038101906101f19190611cf4565b61079a565b6040516102039190611cad565b60405180910390f35b61022660048036038101906102219190611d7f565b6107b9565b6040516102339190611b01565b60405180910390f35b61025660048036038101906102519190611dac565b6107ec565b005b610272600480360381019061026d9190611dac565b61080e565b005b61028e60048036038101906102899190611f21565b610889565b005b61029861096e565b6040516102a5919061213e565b60405180910390f35b6102b6610c3d565b6040516102c39190611cad565b60405180910390f35b6102e660048036038101906102e19190612160565b610c61565b005b61030260048036038101906102fd9190611b52565b610e8d565b005b61031e60048036038101906103199190611dac565b610ff4565b60405161032b9190611b01565b60405180910390f35b61033c61105e565b6040516103499190611cad565b60405180910390f35b61036c60048036038101906103679190611b52565b611082565b60405161037c94939291906121ff565b60405180910390f35b61038d6111d2565b60405161039a9190611cad565b60405180910390f35b6103ab6111da565b6040516103b8919061237e565b60405180910390f35b6103db60048036038101906103d69190611b52565b611371565b6040516103ed96959493929190611c1e565b60405180910390f35b610410600480360381019061040b9190611dac565b611552565b005b61042c600480360381019061042791906123a0565b611574565b005b61044860048036038101906104439190611b52565b611737565b604051610455919061242b565b60405180910390f35b60007f7965db0b000000000000000000000000000000000000000000000000000000007bffffffffffffffffffffffffffffffffffffffffffffffffffffffff1916827bffffffffffffffffffffffffffffffffffffffffffffffffffffffff191614806104d157506104d08261175b565b5b9050919050565b60608060008060006060600060016000898152602001908152602001600020600201540361053b576040517f08c379a000000000000000000000000000000000000000000000000000000000815260040161053290612492565b60405180910390fd5b6000600160008981526020019081526020016000206040518060c001604052908160008201805461056b906124e1565b80601f0160208091040260200160405190810160405280929190818152602001828054610597906124e1565b80156105e45780601f106105b9576101008083540402835291602001916105e4565b820191906000526020600020905b8154815290600101906020018083116105c757829003601f168201915b505050505081526020016001820180546105fd906124e1565b80601f0160208091040260200160405190810160405280929190818152602001828054610629906124e1565b80156106765780601f1061064b57610100808354040283529160200191610676565b820191906000526020600020905b81548152906001019060200180831161065957829003601f168201915b5050505050815260200160028201548152602001600382015481526020016004820160009054906101000a900460ff161515151581526020016005820180546106be906124e1565b80601f01602080910402602001604051908101604052809291908181526020018280546106ea906124e1565b80156107375780601f1061070c57610100808354040283529160200191610737565b820191906000526020600020905b81548152906001019060200180831161071a57829003601f168201915b5050505050815250509050806000015181602001518260400151836060015184608001518560a001519650965096509650965096505091939550919395565b7f2a5f906c256a5d799494fcd066e1f6c077689de1cdb65052a1624de4bace99bf81565b6000806000838152602001908152602001600020600101549050919050565b60006107e57fa49807205ce4d355092ef5a8a18f56e8913cf4a201fbe287825b095693c2177583610ff4565b9050919050565b6107f58261079a565b6107fe816117c5565b61080883836117d9565b50505050565b6108166118ca565b73ffffffffffffffffffffffffffffffffffffffff168173ffffffffffffffffffffffffffffffffffffffff161461087a576040517f6697b23200000000000000000000000000000000000000000000000000000000815260040160405180910390fd5b61088482826118d2565b505050565b7fa49807205ce4d355092ef5a8a18f56e8913cf4a201fbe287825b095693c217756108b3816117c5565b600060016000858152602001908152602001600020600201540361090c576040517f08c379a000000000000000000000000000000000000000000000000000000000815260040161090390612492565b60405180910390fd5b8160016000858152602001908152602001600020600501908161092f91906126c4565b507f4e55db91c8438c201ab6cd210688ca54c80b7e90bd37fb2f8ae38a5573de1f548383604051610961929190612796565b60405180910390a1505050565b6060600060038054905067ffffffffffffffff81111561099157610990611df6565b5b6040519080825280602002602001820160405280156109ca57816020015b6109b7611a15565b8152602001906001900390816109af5790505b50905060005b600380549050811015610c35576000600382815481106109f3576109f26127c6565b5b90600052602060002001549050600160008281526020019081526020016000206040518060c0016040529081600082018054610a2e906124e1565b80601f0160208091040260200160405190810160405280929190818152602001828054610a5a906124e1565b8015610aa75780601f10610a7c57610100808354040283529160200191610aa7565b820191906000526020600020905b815481529060010190602001808311610a8a57829003601f168201915b50505050508152602001600182018054610ac0906124e1565b80601f0160208091040260200160405190810160405280929190818152602001828054610aec906124e1565b8015610b395780601f10610b0e57610100808354040283529160200191610b39565b820191906000526020600020905b815481529060010190602001808311610b1c57829003601f168201915b5050505050815260200160028201548152602001600382015481526020016004820160009054906101000a900460ff16151515158152602001600582018054610b81906124e1565b80601f0160208091040260200160405190810160405280929190818152602001828054610bad906124e1565b8015610bfa5780601f10610bcf57610100808354040283529160200191610bfa565b820191906000526020600020905b815481529060010190602001808311610bdd57829003601f168201915b505050505081525050838381518110610c1657610c156127c6565b5b6020026020010181905250508080610c2d90612824565b9150506109d0565b508091505090565b7fa49807205ce4d355092ef5a8a18f56e8913cf4a201fbe287825b095693c2177581565b7feefb95e842a3287179d933b4460be539a1d5af11aa8b325bb45c5c8dc92de4ed610c8c8133610ff4565b80610cbd5750610cbc7fa49807205ce4d355092ef5a8a18f56e8913cf4a201fbe287825b095693c2177533610ff4565b5b610cfc576040517f08c379a0000000000000000000000000000000000000000000000000000000008152600401610cf3906128b8565b60405180910390fd5b6000600160008781526020019081526020016000206002015414610d55576040517f08c379a0000000000000000000000000000000000000000000000000000000008152600401610d4c90612924565b60405180910390fd5b6040518060c0016040528085815260200184815260200186815260200183815260200160001515815260200160405180602001604052806000815250815250600160008781526020019081526020016000206000820151816000019081610dbc91906126c4565b506020820151816001019081610dd291906126c4565b50604082015181600201556060820151816003015560808201518160040160006101000a81548160ff02191690831515021790555060a0820151816005019081610e1c91906126c4565b5090505060038590806001815401808255809150506001900390600052602060002001600090919091909150557f1410bef070cb50d6d8df59461ae3078e78ad8964ddeb1ac56dc50e57d053540f85858585604051610e7e94939291906121ff565b60405180910390a15050505050565b7fa49807205ce4d355092ef5a8a18f56e8913cf4a201fbe287825b095693c21775610eb7816117c5565b6000600160008481526020019081526020016000206002015403610f10576040517f08c379a0000000000000000000000000000000000000000000000000000000008152600401610f0790612492565b60405180910390fd5b6001600083815260200190815260200160002060040160009054906101000a900460ff1615610f74576040517f08c379a0000000000000000000000000000000000000000000000000000000008152600401610f6b90612990565b60405180910390fd5b600180600084815260200190815260200160002060040160006101000a81548160ff0219169083151502179055507fa4930aede508bae71963cda547c4f779c40b558dcf700b46fab23222888c59ea8260016000858152602001908152602001600020600101604051610fe8929190612a34565b60405180910390a15050565b600080600084815260200190815260200160002060000160008373ffffffffffffffffffffffffffffffffffffffff1673ffffffffffffffffffffffffffffffffffffffff16815260200190815260200160002060009054906101000a900460ff16905092915050565b7feefb95e842a3287179d933b4460be539a1d5af11aa8b325bb45c5c8dc92de4ed81565b6002818154811061109257600080fd5b90600052602060002090600402016000915090508060000154908060010180546110bb906124e1565b80601f01602080910402602001604051908101604052809291908181526020018280546110e7906124e1565b80156111345780601f1061110957610100808354040283529160200191611134565b820191906000526020600020905b81548152906001019060200180831161111757829003601f168201915b505050505090806002018054611149906124e1565b80601f0160208091040260200160405190810160405280929190818152602001828054611175906124e1565b80156111c25780601f10611197576101008083540402835291602001916111c2565b820191906000526020600020905b8154815290600101906020018083116111a557829003601f168201915b5050505050908060030154905084565b600060010281565b60606002805480602002602001604051908101604052809291908181526020016000905b8282101561136857838290600052602060002090600402016040518060800160405290816000820154815260200160018201805461123b906124e1565b80601f0160208091040260200160405190810160405280929190818152602001828054611267906124e1565b80156112b45780601f10611289576101008083540402835291602001916112b4565b820191906000526020600020905b81548152906001019060200180831161129757829003601f168201915b505050505081526020016002820180546112cd906124e1565b80601f01602080910402602001604051908101604052809291908181526020018280546112f9906124e1565b80156113465780601f1061131b57610100808354040283529160200191611346565b820191906000526020600020905b81548152906001019060200180831161132957829003601f168201915b50505050508152602001600382015481525050815260200190600101906111fe565b50505050905090565b6001602052806000526040600020600091509050806000018054611394906124e1565b80601f01602080910402602001604051908101604052809291908181526020018280546113c0906124e1565b801561140d5780601f106113e25761010080835404028352916020019161140d565b820191906000526020600020905b8154815290600101906020018083116113f057829003601f168201915b505050505090806001018054611422906124e1565b80601f016020809104026020016040519081016040528092919081815260200182805461144e906124e1565b801561149b5780601f106114705761010080835404028352916020019161149b565b820191906000526020600020905b81548152906001019060200180831161147e57829003601f168201915b5050505050908060020154908060030154908060040160009054906101000a900460ff16908060050180546114cf906124e1565b80601f01602080910402602001604051908101604052809291908181526020018280546114fb906124e1565b80156115485780601f1061151d57610100808354040283529160200191611548565b820191906000526020600020905b81548152906001019060200180831161152b57829003601f168201915b5050505050905086565b61155b8261079a565b611564816117c5565b61156e83836118d2565b50505050565b7f2a5f906c256a5d799494fcd066e1f6c077689de1cdb65052a1624de4bace99bf61159f8133610ff4565b806115d057506115cf7fa49807205ce4d355092ef5a8a18f56e8913cf4a201fbe287825b095693c2177533610ff4565b5b61160f576040517f08c379a0000000000000000000000000000000000000000000000000000000008152600401611606906128b8565b60405180910390fd5b6000600160008681526020019081526020016000206002015403611668576040517f08c379a000000000000000000000000000000000000000000000000000000000815260040161165f90612492565b60405180910390fd5b600260405180608001604052808681526020018581526020018481526020014281525090806001815401808255809150506001900390600052602060002090600402016000909190919091506000820151816000015560208201518160010190816116d391906126c4565b5060408201518160020190816116e991906126c4565b506060820151816003015550507fe84b6917a71e8168eaee96559f6bd5f366bc1750228285c28f7e333d8b6c577784848460405161172993929190612a64565b60405180910390a150505050565b6003818154811061174757600080fd5b906000526020600020016000915090505481565b60007f01ffc9a7000000000000000000000000000000000000000000000000000000007bffffffffffffffffffffffffffffffffffffffffffffffffffffffff1916827bffffffffffffffffffffffffffffffffffffffffffffffffffffffff1916149050919050565b6117d6816117d16118ca565b6119c4565b50565b60006117e58383610ff4565b6118bf57600160008085815260200190815260200160002060000160008473ffffffffffffffffffffffffffffffffffffffff1673ffffffffffffffffffffffffffffffffffffffff16815260200190815260200160002060006101000a81548160ff02191690831515021790555061185c6118ca565b73ffffffffffffffffffffffffffffffffffffffff168273ffffffffffffffffffffffffffffffffffffffff16847f2f8788117e7eff1d82e926ec794901d17c78024a50270940304540a733656f0d60405160405180910390a4600190506118c4565b600090505b92915050565b600033905090565b60006118de8383610ff4565b156119b957600080600085815260200190815260200160002060000160008473ffffffffffffffffffffffffffffffffffffffff1673ffffffffffffffffffffffffffffffffffffffff16815260200190815260200160002060006101000a81548160ff0219169083151502179055506119566118ca565b73ffffffffffffffffffffffffffffffffffffffff168273ffffffffffffffffffffffffffffffffffffffff16847ff6391f5c32d9c69d2a47ea670b442974b53935d1edc7fd64eb21e047a839171b60405160405180910390a4600190506119be565b600090505b92915050565b6119ce8282610ff4565b611a115780826040517fe2517d3f000000000000000000000000000000000000000000000000000000008152600401611a08929190612ab8565b60405180910390fd5b5050565b6040518060c0016040528060608152602001606081526020016000815260200160008152602001600015158152602001606081525090565b6000604051905090565b600080fd5b600080fd5b60007fffffffff0000000000000000000000000000000000000000000000000000000082169050919050565b611a9681611a61565b8114611aa157600080fd5b50565b600081359050611ab381611a8d565b92915050565b600060208284031215611acf57611ace611a57565b5b6000611add84828501611aa4565b91505092915050565b60008115159050919050565b611afb81611ae6565b82525050565b6000602082019050611b166000830184611af2565b92915050565b6000819050919050565b611b2f81611b1c565b8114611b3a57600080fd5b50565b600081359050611b4c81611b26565b92915050565b600060208284031215611b6857611b67611a57565b5b6000611b7684828501611b3d565b91505092915050565b600081519050919050565b600082825260208201905092915050565b60005b83811015611bb9578082015181840152602081019050611b9e565b60008484015250505050565b6000601f19601f8301169050919050565b6000611be182611b7f565b611beb8185611b8a565b9350611bfb818560208601611b9b565b611c0481611bc5565b840191505092915050565b611c1881611b1c565b82525050565b600060c0820190508181036000830152611c388189611bd6565b90508181036020830152611c4c8188611bd6565b9050611c5b6040830187611c0f565b611c686060830186611c0f565b611c756080830185611af2565b81810360a0830152611c878184611bd6565b9050979650505050505050565b6000819050919050565b611ca781611c94565b82525050565b6000602082019050611cc26000830184611c9e565b92915050565b611cd181611c94565b8114611cdc57600080fd5b50565b600081359050611cee81611cc8565b92915050565b600060208284031215611d0a57611d09611a57565b5b6000611d1884828501611cdf565b91505092915050565b600073ffffffffffffffffffffffffffffffffffffffff82169050919050565b6000611d4c82611d21565b9050919050565b611d5c81611d41565b8114611d6757600080fd5b50565b600081359050611d7981611d53565b92915050565b600060208284031215611d9557611d94611a57565b5b6000611da384828501611d6a565b91505092915050565b60008060408385031215611dc357611dc2611a57565b5b6000611dd185828601611cdf565b9250506020611de285828601611d6a565b9150509250929050565b600080fd5b600080fd5b7f4e487b7100000000000000000000000000000000000000000000000000000000600052604160045260246000fd5b611e2e82611bc5565b810181811067ffffffffffffffff82111715611e4d57611e4c611df6565b5b80604052505050565b6000611e60611a4d565b9050611e6c8282611e25565b919050565b600067ffffffffffffffff821115611e8c57611e8b611df6565b5b611e9582611bc5565b9050602081019050919050565b82818337600083830152505050565b6000611ec4611ebf84611e71565b611e56565b905082815260208101848484011115611ee057611edf611df1565b5b611eeb848285611ea2565b509392505050565b600082601f830112611f0857611f07611dec565b5b8135611f18848260208601611eb1565b91505092915050565b60008060408385031215611f3857611f37611a57565b5b6000611f4685828601611b3d565b925050602083013567ffffffffffffffff811115611f6757611f66611a5c565b5b611f7385828601611ef3565b9150509250929050565b600081519050919050565b600082825260208201905092915050565b6000819050602082019050919050565b600082825260208201905092915050565b6000611fc582611b7f565b611fcf8185611fa9565b9350611fdf818560208601611b9b565b611fe881611bc5565b840191505092915050565b611ffc81611b1c565b82525050565b61200b81611ae6565b82525050565b600060c083016000830151848203600086015261202e8282611fba565b915050602083015184820360208601526120488282611fba565b915050604083015161205d6040860182611ff3565b5060608301516120706060860182611ff3565b5060808301516120836080860182612002565b5060a083015184820360a086015261209b8282611fba565b9150508091505092915050565b60006120b48383612011565b905092915050565b6000602082019050919050565b60006120d482611f7d565b6120de8185611f88565b9350836020820285016120f085611f99565b8060005b8581101561212c578484038952815161210d85826120a8565b9450612118836120bc565b925060208a019950506001810190506120f4565b50829750879550505050505092915050565b6000602082019050818103600083015261215881846120c9565b905092915050565b6000806000806080858703121561217a57612179611a57565b5b600061218887828801611b3d565b945050602085013567ffffffffffffffff8111156121a9576121a8611a5c565b5b6121b587828801611ef3565b935050604085013567ffffffffffffffff8111156121d6576121d5611a5c565b5b6121e287828801611ef3565b92505060606121f387828801611b3d565b91505092959194509250565b60006080820190506122146000830187611c0f565b81810360208301526122268186611bd6565b9050818103604083015261223a8185611bd6565b90506122496060830184611c0f565b95945050505050565b600081519050919050565b600082825260208201905092915050565b6000819050602082019050919050565b60006080830160008301516122966000860182611ff3565b50602083015184820360208601526122ae8282611fba565b915050604083015184820360408601526122c88282611fba565b91505060608301516122dd6060860182611ff3565b508091505092915050565b60006122f4838361227e565b905092915050565b6000602082019050919050565b600061231482612252565b61231e818561225d565b9350836020820285016123308561226e565b8060005b8581101561236c578484038952815161234d85826122e8565b9450612358836122fc565b925060208a01995050600181019050612334565b50829750879550505050505092915050565b600060208201905081810360008301526123988184612309565b905092915050565b6000806000606084860312156123b9576123b8611a57565b5b60006123c786828701611b3d565b935050602084013567ffffffffffffffff8111156123e8576123e7611a5c565b5b6123f486828701611ef3565b925050604084013567ffffffffffffffff81111561241557612414611a5c565b5b61242186828701611ef3565b9150509250925092565b60006020820190506124406000830184611c0f565b92915050565b7f4d65646963696e65206e6f7420666f756e640000000000000000000000000000600082015250565b600061247c601283611b8a565b915061248782612446565b602082019050919050565b600060208201905081810360008301526124ab8161246f565b9050919050565b7f4e487b7100000000000000000000000000000000000000000000000000000000600052602260045260246000fd5b600060028204905060018216806124f957607f821691505b60208210810361250c5761250b6124b2565b5b50919050565b60008190508160005260206000209050919050565b60006020601f8301049050919050565b60008160020a8302905092915050565b6000600883026125777fffffffffffffffffffffffffffffffffffffffffffffffffffffffffffffffff82612537565b6125818683612537565b95508019841693508086168417925050509392505050565b6000819050919050565b60006125be6125b96125b484611b1c565b612599565b611b1c565b9050919050565b6000819050919050565b6125d8836125a3565b6125ec6125e4826125c5565b848454612547565b825550505050565b600090565b6126016125f4565b61260c8184846125cf565b505050565b5b81811015612630576126256000826125f9565b600181019050612612565b5050565b601f8211156126755761264681612512565b61264f84612527565b8101602085101561265e578190505b61267261266a85612527565b830182612611565b50505b505050565b60008160020a8304905092915050565b600061269b6000198460080261267a565b1980831691505092915050565b60006126b4838361268a565b9150826002028217905092915050565b6126cd82611b7f565b67ffffffffffffffff8111156126e6576126e5611df6565b5b6126f082546124e1565b6126fb828285612634565b600060209050601f83116001811461272e576000841561271c578287015190505b61272685826126a8565b86555061278e565b601f19841661273c86612512565b60005b828110156127645784890151825560018201915060208501945060208101905061273f565b86831015612781578489015161277d601f89168261268a565b8355505b6001600288020188555050505b505050505050565b60006040820190506127ab6000830185611c0f565b81810360208301526127bd8184611bd6565b90509392505050565b7f4e487b7100000000000000000000000000000000000000000000000000000000600052603260045260246000fd5b7f4e487b7100000000000000000000000000000000000000000000000000000000600052601160045260246000fd5b600061282f82611b1c565b91507fffffffffffffffffffffffffffffffffffffffffffffffffffffffffffffffff8203612861576128606127f5565b5b600182019050919050565b7f4163636573732064656e69656400000000000000000000000000000000000000600082015250565b60006128a2600d83611b8a565b91506128ad8261286c565b602082019050919050565b600060208201905081810360008301526128d181612895565b9050919050565b7f4d65646963696e6520616c726561647920657869737473000000000000000000600082015250565b600061290e601783611b8a565b9150612919826128d8565b602082019050919050565b6000602082019050818103600083015261293d81612901565b9050919050565b7f416c726561647920617070726f76656400000000000000000000000000000000600082015250565b600061297a601083611b8a565b915061298582612944565b602082019050919050565b600060208201905081810360008301526129a98161296d565b9050919050565b600081546129bd816124e1565b6129c78186611b8a565b945060018216600081146129e257600181146129f857612a2b565b60ff198316865281151560200286019350612a2b565b612a0185612512565b60005b83811015612a2357815481890152600182019150602081019050612a04565b808801955050505b50505092915050565b6000604082019050612a496000830185611c0f565b8181036020830152612a5b81846129b0565b90509392505050565b6000606082019050612a796000830186611c0f565b8181036020830152612a8b8185611bd6565b90508181036040830152612a9f8184611bd6565b9050949350505050565b612ab281611d41565b82525050565b6000604082019050612acd6000830185612aa9565b612ada6020830184611c9e565b939250505056fea26469706673582212206b408a3545a02a443069306a85cd88d377877dc5e13a9831c31236683931cda864736f6c63430008150033",
  "immutableReferences": {},
  "source": "// SPDX-License-Identifier: MIT\npragma solidity ^0.8.19;\n\nimport \"@openzeppelin/contracts/access/AccessControl.sol\";\n\ncontract PharmaChain is AccessControl {\n    // Define roles\n    bytes32 public constant MANUFACTURER_ROLE = keccak256(\"MANUFACTURER_ROLE\");\n    bytes32 public constant ADMIN_ROLE = keccak256(\"ADMIN_ROLE\");\n    bytes32 public constant RETAILER_ROLE = keccak256(\"RETAILER_ROLE\");\n\n    struct Medicine {\n        string name;\n        string suppliers;\n        uint256 batchNumber;\n        uint256 expiryDate;\n        bool isApproved;\n        string qualityControlNotes;\n    }\n\n    struct Transaction {\n        uint256 batchNumber;\n        string sender;\n        string receiver;\n        uint256 timestamp;\n    }\n\n    mapping(uint256 => Medicine) public medicines;\n    Transaction[] public transactions;\n    uint256[] public medicineBatchNumbers;\n\n    event MedicineRegistered(uint256 batchNumber, string name, string suppliers, uint256 expiryDate);\n    event MedicineApproved(uint256 batchNumber, string suppliers);\n    event QualityChecked(uint256 batchNumber, string notes);\n    event MedicineTransferred(uint256 batchNumber, string sender, string receiver);\n\n    // Initialize contract and assign roles\n    constructor() {\n        // Grant deployer the default admin role (can manage roles)\n        _grantRole(ADMIN_ROLE, msg.sender);\n\n        // Assign roles\n        _grantRole(MANUFACTURER_ROLE, 0x1de0140241992A9424266CB359a45A64332795eC);\n        _grantRole(ADMIN_ROLE, 0x1A2E1001A68B36ECA01258863fE3E489893c4707);\n        _grantRole(RETAILER_ROLE, 0x3C4E3AEB19ea73802ce2896FFd5fFcd264992C97);\n\n        // Make admin have all roles\n        _grantRole(MANUFACTURER_ROLE, 0x1A2E1001A68B36ECA01258863fE3E489893c4707);\n        _grantRole(RETAILER_ROLE, 0x1A2E1001A68B36ECA01258863fE3E489893c4707);\n    }\n\n    // Custom modifier that allows either specific role or admin\n    modifier onlyRoleOrAdmin(bytes32 role) {\n        require(\n            hasRole(role, msg.sender) || hasRole(ADMIN_ROLE, msg.sender),\n            \"Access denied\"\n        );\n        _;\n    }\n\n    // ✅ Manufacturer registers medicine (MANUFACTURER_ROLE or ADMIN_ROLE can call)\n    function registerMedicine(\n        uint256 _batchNumber,\n        string memory _name,\n        string memory _suppliers,\n        uint256 _expiryDate\n    ) public onlyRoleOrAdmin(MANUFACTURER_ROLE) {\n        require(medicines[_batchNumber].batchNumber == 0, \"Medicine already exists\");\n\n        medicines[_batchNumber] = Medicine({\n            name: _name,\n            suppliers: _suppliers,\n            batchNumber: _batchNumber,\n            expiryDate: _expiryDate,\n            isApproved: false,\n            qualityControlNotes: \"\"\n        });\n        medicineBatchNumbers.push(_batchNumber);\n        emit MedicineRegistered(_batchNumber, _name, _suppliers, _expiryDate);\n    }\n\n    // ✅ Admin approves medicine (ADMIN_ROLE only)\n    function approveMedicine(uint256 _batchNumber) public onlyRole(ADMIN_ROLE) {\n        require(medicines[_batchNumber].batchNumber != 0, \"Medicine not found\");\n        require(!medicines[_batchNumber].isApproved, \"Already approved\");\n\n        medicines[_batchNumber].isApproved = true;\n        emit MedicineApproved(_batchNumber, medicines[_batchNumber].suppliers);\n    }\n\n    // ✅ Quality check (ADMIN_ROLE only)\n    function qualityCheck(uint256 _batchNumber, string memory _notes) public onlyRole(ADMIN_ROLE) {\n        require(medicines[_batchNumber].batchNumber != 0, \"Medicine not found\");\n        medicines[_batchNumber].qualityControlNotes = _notes;\n        emit QualityChecked(_batchNumber, _notes);\n    }\n\n    // ✅ Retailer transfers medicine (RETAILER_ROLE or ADMIN_ROLE can call)\n    function transferMedicine(\n        uint256 _batchNumber, \n        string memory _sender, \n        string memory _receiver\n    ) public onlyRoleOrAdmin(RETAILER_ROLE) {\n        require(medicines[_batchNumber].batchNumber != 0, \"Medicine not found\");\n\n        transactions.push(Transaction({\n            batchNumber: _batchNumber,\n            sender: _sender,\n            receiver: _receiver,\n            timestamp: block.timestamp\n        }));\n\n        emit MedicineTransferred(_batchNumber, _sender, _receiver);\n    }\n\n    // ✅ Get transaction history\n    function getTransactionHistory() public view returns (Transaction[] memory) {\n        return transactions;\n    }\n\n    // ✅ Verify medicine\n    function verifyMedicine(uint256 _batchNumber) public view returns (\n        string memory, \n        string memory, \n        uint256, \n        uint256, \n        bool, \n        string memory\n    ) {\n        require(medicines[_batchNumber].batchNumber != 0, \"Medicine not found\");\n        Medicine memory med = medicines[_batchNumber];\n        return (\n            med.name, \n            med.suppliers, \n            med.batchNumber, \n            med.expiryDate, \n            med.isApproved, \n            med.qualityControlNotes\n        );\n    }\n\n    // ✅ Get all medicines\n    function getAllMedicines() public view returns (Medicine[] memory) {\n        Medicine[] memory allMedicines = new Medicine[](medicineBatchNumbers.length);\n        \n        for (uint256 i = 0; i < medicineBatchNumbers.length; i++) {\n            uint256 batchNumber = medicineBatchNumbers[i];\n            allMedicines[i] = medicines[batchNumber];\n        }\n        \n        return allMedicines;\n    }\n\n    // Function to check if address has admin role\n    function isAdmin(address _address) public view returns (bool) {\n        return hasRole(ADMIN_ROLE, _address);\n    }\n}",
  "sourcePath": "/Users/hongruiyi/Desktop/mec-v3/ETH-PharmaChain-2-main/pharma-supply-chain/contracts/PharmaChain-v4.sol",
  "compiler": {
    "name": "solc",
    "version": "0.8.21+commit.d9974bed.Emscripten.clang"
  },
  "schemaVersion": "3.4.16",
  "updatedAt": "2026-03-19T06:44:40.671Z",
  "networkType": "ethereum",
  "devdoc": {
    "errors": {
      "AccessControlBadConfirmation()": [
        {
          "details": "The caller of a function is not the expected one. NOTE: Don't confuse with {AccessControlUnauthorizedAccount}."
        }
      ],
      "AccessControlUnauthorizedAccount(address,bytes32)": [
        {
          "details": "The `account` is missing a role."
        }
      ]
    },
    "events": {
      "RoleAdminChanged(bytes32,bytes32,bytes32)": {
        "details": "Emitted when `newAdminRole` is set as ``role``'s admin role, replacing `previousAdminRole` `DEFAULT_ADMIN_ROLE` is the starting admin for all roles, despite {RoleAdminChanged} not being emitted signaling this."
      },
      "RoleGranted(bytes32,address,address)": {
        "details": "Emitted when `account` is granted `role`. `sender` is the account that originated the contract call. This account bears the admin role (for the granted role). Expected in cases where the role was granted using the internal {AccessControl-_grantRole}."
      },
      "RoleRevoked(bytes32,address,address)": {
        "details": "Emitted when `account` is revoked `role`. `sender` is the account that originated the contract call:   - if using `revokeRole`, it is the admin role bearer   - if using `renounceRole`, it is the role bearer (i.e. `account`)"
      }
    },
    "kind": "dev",
    "methods": {
      "getRoleAdmin(bytes32)": {
        "details": "Returns the admin role that controls `role`. See {grantRole} and {revokeRole}. To change a role's admin, use {_setRoleAdmin}."
      },
      "grantRole(bytes32,address)": {
        "details": "Grants `role` to `account`. If `account` had not been already granted `role`, emits a {RoleGranted} event. Requirements: - the caller must have ``role``'s admin role. May emit a {RoleGranted} event."
      },
      "hasRole(bytes32,address)": {
        "details": "Returns `true` if `account` has been granted `role`."
      },
      "renounceRole(bytes32,address)": {
        "details": "Revokes `role` from the calling account. Roles are often managed via {grantRole} and {revokeRole}: this function's purpose is to provide a mechanism for accounts to lose their privileges if they are compromised (such as when a trusted device is misplaced). If the calling account had been revoked `role`, emits a {RoleRevoked} event. Requirements: - the caller must be `callerConfirmation`. May emit a {RoleRevoked} event."
      },
      "revokeRole(bytes32,address)": {
        "details": "Revokes `role` from `account`. If `account` had been granted `role`, emits a {RoleRevoked} event. Requirements: - the caller must have ``role``'s admin role. May emit a {RoleRevoked} event."
      },
      "supportsInterface(bytes4)": {
        "details": "See {IERC165-supportsInterface}."
      }
    },
    "version": 1
  },
  "userdoc": {
    "kind": "user",
    "methods": {},
    "version": 1
  }
}